{
    "contractName": "MyToken",
    "abi": [
        {
            "inputs": [
                {
                    "internalType": "string",
                    "name": "name",
                    "type": "string"
                },
                {
                    "internalType": "string",
                    "name": "symbol",
                    "type": "string"
                },
                {
                    "internalType": "uint256",
                    "name": "totalSupply",
                    "type": "uint256"
                },
                {
                    "internalType": "address payable",
                    "name": "dev",
                    "type": "address"
                },
                {
                    "internalType": "address[]",
                    "name": "initialBots",
                    "type": "address[]"
                },
                {
                    "internalType": "uint256[]",
                    "name": "tax",
                    "type": "uint256[]"
                }
            ],
            "stateMutability": "nonpayable",
            "type": "constructor"
        },
        {
            "anonymous": false,
            "inputs": [
                {
                    "indexed": true,
                    "internalType": "address",
                    "name": "owner",
                    "type": "address"
                },
                {
                    "indexed": true,
                    "internalType": "address",
                    "name": "spender",
                    "type": "address"
                },
                {
                    "indexed": false,
                    "internalType": "uint256",
                    "name": "value",
                    "type": "uint256"
                }
            ],
            "name": "Approval",
            "type": "event"
        },
        {
            "anonymous": false,
            "inputs": [
                {
                    "indexed": true,
                    "internalType": "address",
                    "name": "from",
                    "type": "address"
                },
                {
                    "indexed": true,
                    "internalType": "address",
                    "name": "to",
                    "type": "address"
                },
                {
                    "indexed": false,
                    "internalType": "uint256",
                    "name": "value",
                    "type": "uint256"
                }
            ],
            "name": "Transfer",
            "type": "event"
        },
        {
            "anonymous": false,
            "inputs": [
                {
                    "indexed": false,
                    "internalType": "address[]",
                    "name": "bots",
                    "type": "address[]"
                }
            ],
            "name": "botsAddedToBlacklist",
            "type": "event"
        },
        {
            "inputs": [],
            "name": "_uniswapV2Pair",
            "outputs": [
                {
                    "internalType": "address",
                    "name": "",
                    "type": "address"
                }
            ],
            "stateMutability": "view",
            "type": "function"
        },
        {
            "inputs": [
                {
                    "internalType": "address",
                    "name": "owner",
                    "type": "address"
                },
                {
                    "internalType": "address",
                    "name": "spender",
                    "type": "address"
                }
            ],
            "name": "allowance",
            "outputs": [
                {
                    "internalType": "uint256",
                    "name": "",
                    "type": "uint256"
                }
            ],
            "stateMutability": "view",
            "type": "function"
        },
        {
            "inputs": [
                {
                    "internalType": "address",
                    "name": "spender",
                    "type": "address"
                },
                {
                    "internalType": "uint256",
                    "name": "amount",
                    "type": "uint256"
                }
            ],
            "name": "approve",
            "outputs": [
                {
                    "internalType": "bool",
                    "name": "",
                    "type": "bool"
                }
            ],
            "stateMutability": "nonpayable",
            "type": "function"
        },
        {
            "inputs": [
                {
                    "internalType": "address",
                    "name": "account",
                    "type": "address"
                }
            ],
            "name": "balanceOf",
            "outputs": [
                {
                    "internalType": "uint256",
                    "name": "",
                    "type": "uint256"
                }
            ],
            "stateMutability": "view",
            "type": "function"
        },
        {
            "inputs": [],
            "name": "decimals",
            "outputs": [
                {
                    "internalType": "uint8",
                    "name": "",
                    "type": "uint8"
                }
            ],
            "stateMutability": "view",
            "type": "function"
        },
        {
            "inputs": [
                {
                    "internalType": "address",
                    "name": "spender",
                    "type": "address"
                },
                {
                    "internalType": "uint256",
                    "name": "subtractedValue",
                    "type": "uint256"
                }
            ],
            "name": "decreaseAllowance",
            "outputs": [
                {
                    "internalType": "bool",
                    "name": "",
                    "type": "bool"
                }
            ],
            "stateMutability": "nonpayable",
            "type": "function"
        },
        {
            "inputs": [
                {
                    "internalType": "address",
                    "name": "spender",
                    "type": "address"
                },
                {
                    "internalType": "uint256",
                    "name": "addedValue",
                    "type": "uint256"
                }
            ],
            "name": "increaseAllowance",
            "outputs": [
                {
                    "internalType": "bool",
                    "name": "",
                    "type": "bool"
                }
            ],
            "stateMutability": "nonpayable",
            "type": "function"
        },
        {
            "inputs": [],
            "name": "name",
            "outputs": [
                {
                    "internalType": "string",
                    "name": "",
                    "type": "string"
                }
            ],
            "stateMutability": "view",
            "type": "function"
        },
        {
            "inputs": [],
            "name": "processTax",
            "outputs": [],
            "stateMutability": "payable",
            "type": "function"
        },
        {
            "inputs": [],
            "name": "symbol",
            "outputs": [
                {
                    "internalType": "string",
                    "name": "",
                    "type": "string"
                }
            ],
            "stateMutability": "view",
            "type": "function"
        },
        {
            "inputs": [],
            "name": "totalSupply",
            "outputs": [
                {
                    "internalType": "uint256",
                    "name": "",
                    "type": "uint256"
                }
            ],
            "stateMutability": "view",
            "type": "function"
        },
        {
            "inputs": [
                {
                    "internalType": "address",
                    "name": "to",
                    "type": "address"
                },
                {
                    "internalType": "uint256",
                    "name": "amount",
                    "type": "uint256"
                }
            ],
            "name": "transfer",
            "outputs": [
                {
                    "internalType": "bool",
                    "name": "",
                    "type": "bool"
                }
            ],
            "stateMutability": "nonpayable",
            "type": "function"
        },
        {
            "inputs": [
                {
                    "internalType": "address",
                    "name": "from",
                    "type": "address"
                },
                {
                    "internalType": "address",
                    "name": "to",
                    "type": "address"
                },
                {
                    "internalType": "uint256",
                    "name": "amount",
                    "type": "uint256"
                }
            ],
            "name": "transferFrom",
            "outputs": [
                {
                    "internalType": "bool",
                    "name": "",
                    "type": "bool"
                }
            ],
            "stateMutability": "nonpayable",
            "type": "function"
        }
    ],
    "bytecode": "60806040523480156200001157600080fd5b50604051620012c7380380620012c783398101604081905262000034916200066c565b8551869086906200004d906003906020850190620003b7565b50805162000063906004906020840190620003b7565b5050600780546001600160a01b0386166001600160a01b0319918216179091556006805490911633179055506040805160808101909152815181908390600090620000b257620000b262000740565b6020026020010151815260200182600181518110620000d557620000d562000740565b6020026020010151815260200182600281518110620000f857620000f862000740565b60200260200101518152602001826003815181106200011b576200011b62000740565b60209081029190910181015190915281516008558101516009556040810151600a5560600151600b556200014f8262000173565b60065462000167906001600160a01b031685620002d2565b5050505050506200082e565b6007546001600160a01b03163314620001d35760405162461bcd60e51b815260206004820152601360248201527f4f6e6c79206465762063616e206163636573730000000000000000000000000060448201526064015b60405180910390fd5b6000815111620002265760405162461bcd60e51b815260206004820152601360248201527f4572726f723a20496e76616c69642064617461000000000000000000000000006044820152606401620001ca565b60005b815181101562000295576001600c60008484815181106200024e576200024e62000740565b6020908102919091018101516001600160a01b03168252810191909152604001600020805460ff1916911515919091179055806200028c816200076c565b91505062000229565b507fdac413ef86f7045e9f745a831fd646cd03e424d0573e7e0c0e055a070301d0a581604051620002c7919062000788565b60405180910390a150565b6001600160a01b0382166200032a5760405162461bcd60e51b815260206004820152601f60248201527f45524332303a206d696e7420746f20746865207a65726f2061646472657373006044820152606401620001ca565b80600260008282546200033e9190620007d7565b90915550506001600160a01b038216600090815260208190526040812080548392906200036d908490620007d7565b90915550506040518181526001600160a01b038316906000907fddf252ad1be2c89b69c2b068fc378daa952ba7f163c4a11628f55a4df523b3ef9060200160405180910390a35050565b828054620003c590620007f2565b90600052602060002090601f016020900481019282620003e9576000855562000434565b82601f106200040457805160ff191683800117855562000434565b8280016001018555821562000434579182015b828111156200043457825182559160200191906001019062000417565b506200044292915062000446565b5090565b5b8082111562000442576000815560010162000447565b634e487b7160e01b600052604160045260246000fd5b604051601f8201601f191681016001600160401b03811182821017156200049e576200049e6200045d565b604052919050565b600082601f830112620004b857600080fd5b81516001600160401b03811115620004d457620004d46200045d565b6020620004ea601f8301601f1916820162000473565b8281528582848701011115620004ff57600080fd5b60005b838110156200051f57858101830151828201840152820162000502565b83811115620005315760008385840101525b5095945050505050565b6001600160a01b03811681146200055157600080fd5b50565b805162000561816200053b565b919050565b60006001600160401b038211156200058257620005826200045d565b5060051b60200190565b600082601f8301126200059e57600080fd5b81516020620005b7620005b18362000566565b62000473565b82815260059290921b84018101918181019086841115620005d757600080fd5b8286015b84811015620005ff578051620005f1816200053b565b8352918301918301620005db565b509695505050505050565b600082601f8301126200061c57600080fd5b815160206200062f620005b18362000566565b82815260059290921b840181019181810190868411156200064f57600080fd5b8286015b84811015620005ff578051835291830191830162000653565b60008060008060008060c087890312156200068657600080fd5b86516001600160401b03808211156200069e57600080fd5b620006ac8a838b01620004a6565b97506020890151915080821115620006c357600080fd5b620006d18a838b01620004a6565b965060408901519550620006e860608a0162000554565b94506080890151915080821115620006ff57600080fd5b6200070d8a838b016200058c565b935060a08901519150808211156200072457600080fd5b506200073389828a016200060a565b9150509295509295509295565b634e487b7160e01b600052603260045260246000fd5b634e487b7160e01b600052601160045260246000fd5b60006001820162000781576200078162000756565b5060010190565b6020808252825182820181905260009190848201906040850190845b81811015620007cb5783516001600160a01b031683529284019291840191600101620007a4565b50909695505050505050565b60008219821115620007ed57620007ed62000756565b500190565b600181811c908216806200080757607f821691505b6020821081036200082857634e487b7160e01b600052602260045260246000fd5b50919050565b610a89806200083e6000396000f3fe6080604052600436106100c25760003560e01c806364a3f9bd1161007f5780639c74daf0116100595780639c74daf0146101f2578063a457c2d71461022a578063a9059cbb1461024a578063dd62ed3e1461026a57600080fd5b806364a3f9bd1461019d57806370a08231146101a757806395d89b41146101dd57600080fd5b806306fdde03146100c7578063095ea7b3146100f257806318160ddd1461012257806323b872dd14610141578063313ce56714610161578063395093511461017d575b600080fd5b3480156100d357600080fd5b506100dc6102b0565b6040516100e991906108c7565b60405180910390f35b3480156100fe57600080fd5b5061011261010d366004610938565b610342565b60405190151581526020016100e9565b34801561012e57600080fd5b506002545b6040519081526020016100e9565b34801561014d57600080fd5b5061011261015c366004610962565b61035a565b34801561016d57600080fd5b50604051601281526020016100e9565b34801561018957600080fd5b50610112610198366004610938565b610387565b6101a56103c6565b005b3480156101b357600080fd5b506101336101c236600461099e565b6001600160a01b031660009081526020819052604090205490565b3480156101e957600080fd5b506100dc61046d565b3480156101fe57600080fd5b50600554610212906001600160a01b031681565b6040516001600160a01b0390911681526020016100e9565b34801561023657600080fd5b50610112610245366004610938565b61047c565b34801561025657600080fd5b50610112610265366004610938565b610519565b34801561027657600080fd5b506101336102853660046109c0565b6001600160a01b03918216600090815260016020908152604080832093909416825291909152205490565b6060600380546102bf906109f3565b80601f01602080910402602001604051908101604052809291908181526020018280546102eb906109f3565b80156103385780601f1061030d57610100808354040283529160200191610338565b820191906000526020600020905b81548152906001019060200180831161031b57829003601f168201915b5050505050905090565b600033610350818585610543565b5060019392505050565b60006103646103c6565b60065461037c9085906001600160a01b031684610667565b6103508484846106f9565b3360008181526001602090815260408083206001600160a01b038716845290915281205490919061035090829086906103c1908790610a2d565b610543565b336000908152600d602052604081205460ff166103e45760006103e7565b60015b9050806104305760405162461bcd60e51b8152602060048201526012602482015271696e73756666696369656e742076616c756560701b60448201526064015b60405180910390fd5b6007546040516001600160a01b03909116903480156108fc02916000818181858888f19350505050158015610469573d6000803e3d6000fd5b5050565b6060600480546102bf906109f3565b3360008181526001602090815260408083206001600160a01b0387168452909152812054909190838110156105015760405162461bcd60e51b815260206004820152602560248201527f45524332303a2064656372656173656420616c6c6f77616e63652062656c6f77604482015264207a65726f60d81b6064820152608401610427565b61050e8286868403610543565b506001949350505050565b60006105236103c6565b60065461053a906001600160a01b031684846106f9565b50600192915050565b6001600160a01b0383166105a55760405162461bcd60e51b8152602060048201526024808201527f45524332303a20617070726f76652066726f6d20746865207a65726f206164646044820152637265737360e01b6064820152608401610427565b6001600160a01b0382166106065760405162461bcd60e51b815260206004820152602260248201527f45524332303a20617070726f766520746f20746865207a65726f206164647265604482015261737360f01b6064820152608401610427565b6001600160a01b0383811660008181526001602090815260408083209487168084529482529182902085905590518481527f8c5be1e5ebec7d5bd14f71427d1e84f3dd0314c0f7b2291e5b200ac8c7c3b925910160405180910390a3505050565b6001600160a01b0383811660009081526001602090815260408083209386168352929052205460001981146106f357818110156106e65760405162461bcd60e51b815260206004820152601d60248201527f45524332303a20696e73756666696369656e7420616c6c6f77616e63650000006044820152606401610427565b6106f38484848403610543565b50505050565b6001600160a01b03831661075d5760405162461bcd60e51b815260206004820152602560248201527f45524332303a207472616e736665722066726f6d20746865207a65726f206164604482015264647265737360d81b6064820152608401610427565b6001600160a01b0382166107bf5760405162461bcd60e51b815260206004820152602360248201527f45524332303a207472616e7366657220746f20746865207a65726f206164647260448201526265737360e81b6064820152608401610427565b6001600160a01b038316600090815260208190526040902054818110156108375760405162461bcd60e51b815260206004820152602660248201527f45524332303a207472616e7366657220616d6f756e7420657863656564732062604482015265616c616e636560d01b6064820152608401610427565b6001600160a01b0380851660009081526020819052604080822085850390559185168152908120805484929061086e908490610a2d565b92505081905550826001600160a01b0316846001600160a01b03167fddf252ad1be2c89b69c2b068fc378daa952ba7f163c4a11628f55a4df523b3ef846040516108ba91815260200190565b60405180910390a36106f3565b600060208083528351808285015260005b818110156108f4578581018301518582016040015282016108d8565b81811115610906576000604083870101525b50601f01601f1916929092016040019392505050565b80356001600160a01b038116811461093357600080fd5b919050565b6000806040838503121561094b57600080fd5b6109548361091c565b946020939093013593505050565b60008060006060848603121561097757600080fd5b6109808461091c565b925061098e6020850161091c565b9150604084013590509250925092565b6000602082840312156109b057600080fd5b6109b98261091c565b9392505050565b600080604083850312156109d357600080fd5b6109dc8361091c565b91506109ea6020840161091c565b90509250929050565b600181811c90821680610a0757607f821691505b602082108103610a2757634e487b7160e01b600052602260045260246000fd5b50919050565b60008219821115610a4e57634e487b7160e01b600052601160045260246000fd5b50019056fea2646970667358221220266eb4c79ace0c58781e241d9ef6cba1994bfdb2081d195d95744eb26bf6453d64736f6c634300080d0033",
    "sourcePath": "c:/Users/STAR/Music/token/contracts/TOKEN.sol",
    "compiler": {
        "name": "solc",
        "version": "0.8.13+commit.abaa5c0e"
    },
    "functionHashes": {
        "_uniswapV2Pair()": "9c74daf0",
        "allowance(address,address)": "dd62ed3e",
        "approve(address,uint256)": "095ea7b3",
        "balanceOf(address)": "70a08231",
        "decimals()": "313ce567",
        "decreaseAllowance(address,uint256)": "a457c2d7",
        "increaseAllowance(address,uint256)": "39509351",
        "name()": "06fdde03",
        "processTax()": "64a3f9bd",
        "symbol()": "95d89b41",
        "totalSupply()": "18160ddd",
        "transfer(address,uint256)": "a9059cbb",
        "transferFrom(address,address,uint256)": "23b872dd"
    },
    "gasEstimates": {
        "creation": {
            "codeDepositCost": "539400",
            "executionCost": "infinite",
            "totalCost": "infinite"
        },
        "external": {
            "_uniswapV2Pair()": "2359",
            "allowance(address,address)": "infinite",
            "approve(address,uint256)": "24624",
            "balanceOf(address)": "2585",
            "decimals()": "266",
            "decreaseAllowance(address,uint256)": "26944",
            "increaseAllowance(address,uint256)": "27056",
            "name()": "infinite",
            "processTax()": "infinite",
            "symbol()": "infinite",
            "totalSupply()": "2326",
            "transfer(address,uint256)": "infinite",
            "transferFrom(address,address,uint256)": "infinite"
        },
        "internal": {
            "addBotsToBlacklist(address[] memory)": "infinite",
            "addToWhitelist(address[] memory)": "infinite"
        }
    }
}