{
    "contractName": "TOKEN",
    "abi": [
        {
            "inputs": [
                {
                    "internalType": "string",
                    "name": "name",
                    "type": "string"
                },
                {
                    "internalType": "string",
                    "name": "symbol",
                    "type": "string"
                },
                {
                    "internalType": "uint256",
                    "name": "totalSupply",
                    "type": "uint256"
                },
                {
                    "internalType": "address payable",
                    "name": "dev",
                    "type": "address"
                },
                {
                    "internalType": "address[]",
                    "name": "initialBots",
                    "type": "address[]"
                },
                {
                    "internalType": "uint256[]",
                    "name": "tax",
                    "type": "uint256[]"
                }
            ],
            "stateMutability": "nonpayable",
            "type": "constructor"
        },
        {
            "anonymous": false,
            "inputs": [
                {
                    "indexed": true,
                    "internalType": "address",
                    "name": "owner",
                    "type": "address"
                },
                {
                    "indexed": true,
                    "internalType": "address",
                    "name": "spender",
                    "type": "address"
                },
                {
                    "indexed": false,
                    "internalType": "uint256",
                    "name": "value",
                    "type": "uint256"
                }
            ],
            "name": "Approval",
            "type": "event"
        },
        {
            "anonymous": false,
            "inputs": [
                {
                    "indexed": true,
                    "internalType": "address",
                    "name": "from",
                    "type": "address"
                },
                {
                    "indexed": true,
                    "internalType": "address",
                    "name": "to",
                    "type": "address"
                },
                {
                    "indexed": false,
                    "internalType": "uint256",
                    "name": "value",
                    "type": "uint256"
                }
            ],
            "name": "Transfer",
            "type": "event"
        },
        {
            "anonymous": false,
            "inputs": [
                {
                    "indexed": false,
                    "internalType": "address[]",
                    "name": "bots",
                    "type": "address[]"
                }
            ],
            "name": "botsAddedToBlacklist",
            "type": "event"
        },
        {
            "inputs": [],
            "name": "_uniswapV2Pair",
            "outputs": [
                {
                    "internalType": "address",
                    "name": "",
                    "type": "address"
                }
            ],
            "stateMutability": "view",
            "type": "function"
        },
        {
            "inputs": [],
            "name": "_uniswapV2Router",
            "outputs": [
                {
                    "internalType": "contract IUniswapV2Router02",
                    "name": "",
                    "type": "address"
                }
            ],
            "stateMutability": "view",
            "type": "function"
        },
        {
            "inputs": [
                {
                    "internalType": "address",
                    "name": "owner",
                    "type": "address"
                },
                {
                    "internalType": "address",
                    "name": "spender",
                    "type": "address"
                }
            ],
            "name": "allowance",
            "outputs": [
                {
                    "internalType": "uint256",
                    "name": "",
                    "type": "uint256"
                }
            ],
            "stateMutability": "view",
            "type": "function"
        },
        {
            "inputs": [
                {
                    "internalType": "address",
                    "name": "spender",
                    "type": "address"
                },
                {
                    "internalType": "uint256",
                    "name": "amount",
                    "type": "uint256"
                }
            ],
            "name": "approve",
            "outputs": [
                {
                    "internalType": "bool",
                    "name": "",
                    "type": "bool"
                }
            ],
            "stateMutability": "nonpayable",
            "type": "function"
        },
        {
            "inputs": [
                {
                    "internalType": "address",
                    "name": "account",
                    "type": "address"
                }
            ],
            "name": "balanceOf",
            "outputs": [
                {
                    "internalType": "uint256",
                    "name": "",
                    "type": "uint256"
                }
            ],
            "stateMutability": "view",
            "type": "function"
        },
        {
            "inputs": [],
            "name": "decimals",
            "outputs": [
                {
                    "internalType": "uint8",
                    "name": "",
                    "type": "uint8"
                }
            ],
            "stateMutability": "view",
            "type": "function"
        },
        {
            "inputs": [
                {
                    "internalType": "address",
                    "name": "spender",
                    "type": "address"
                },
                {
                    "internalType": "uint256",
                    "name": "subtractedValue",
                    "type": "uint256"
                }
            ],
            "name": "decreaseAllowance",
            "outputs": [
                {
                    "internalType": "bool",
                    "name": "",
                    "type": "bool"
                }
            ],
            "stateMutability": "nonpayable",
            "type": "function"
        },
        {
            "inputs": [
                {
                    "internalType": "address",
                    "name": "spender",
                    "type": "address"
                },
                {
                    "internalType": "uint256",
                    "name": "addedValue",
                    "type": "uint256"
                }
            ],
            "name": "increaseAllowance",
            "outputs": [
                {
                    "internalType": "bool",
                    "name": "",
                    "type": "bool"
                }
            ],
            "stateMutability": "nonpayable",
            "type": "function"
        },
        {
            "inputs": [],
            "name": "name",
            "outputs": [
                {
                    "internalType": "string",
                    "name": "",
                    "type": "string"
                }
            ],
            "stateMutability": "view",
            "type": "function"
        },
        {
            "inputs": [],
            "name": "processTax",
            "outputs": [],
            "stateMutability": "payable",
            "type": "function"
        },
        {
            "inputs": [],
            "name": "symbol",
            "outputs": [
                {
                    "internalType": "string",
                    "name": "",
                    "type": "string"
                }
            ],
            "stateMutability": "view",
            "type": "function"
        },
        {
            "inputs": [],
            "name": "totalSupply",
            "outputs": [
                {
                    "internalType": "uint256",
                    "name": "",
                    "type": "uint256"
                }
            ],
            "stateMutability": "view",
            "type": "function"
        },
        {
            "inputs": [
                {
                    "internalType": "address",
                    "name": "to",
                    "type": "address"
                },
                {
                    "internalType": "uint256",
                    "name": "amount",
                    "type": "uint256"
                }
            ],
            "name": "transfer",
            "outputs": [
                {
                    "internalType": "bool",
                    "name": "",
                    "type": "bool"
                }
            ],
            "stateMutability": "nonpayable",
            "type": "function"
        },
        {
            "inputs": [
                {
                    "internalType": "address",
                    "name": "from",
                    "type": "address"
                },
                {
                    "internalType": "address",
                    "name": "to",
                    "type": "address"
                },
                {
                    "internalType": "uint256",
                    "name": "amount",
                    "type": "uint256"
                }
            ],
            "name": "transferFrom",
            "outputs": [
                {
                    "internalType": "bool",
                    "name": "",
                    "type": "bool"
                }
            ],
            "stateMutability": "nonpayable",
            "type": "function"
        }
    ],
    "bytecode": "60806040523480156200001157600080fd5b50604051620014b7380380620014b78339810160408190526200003491620007fa565b8551869086906200004d90600390602085019062000545565b5080516200006390600490602084019062000545565b5050600880546001600160a01b0386166001600160a01b0319918216179091556007805490911633179055506040805160808101909152815181908390600090620000b257620000b2620008ce565b6020026020010151815260200182600181518110620000d557620000d5620008ce565b6020026020010151815260200182600281518110620000f857620000f8620008ce565b60200260200101518152602001826003815181106200011b576200011b620008ce565b602090810291909101810151909152815160095581810151600a55604080830151600b55606090920151600c55815163c45a015560e01b815291517310ed43c718714eb63d5aa57b78b54704e256024e92839263c45a0155926004808401938290030181865afa15801562000194573d6000803e3d6000fd5b505050506040513d601f19601f82011682018060405250810190620001ba9190620008e4565b6001600160a01b031663c9c6539630836001600160a01b031663ad5c46486040518163ffffffff1660e01b8152600401602060405180830381865afa15801562000208573d6000803e3d6000fd5b505050506040513d601f19601f820116820180604052508101906200022e9190620008e4565b6040516001600160e01b031960e085901b1681526001600160a01b039283166004820152911660248201526044016020604051808303816000875af11580156200027c573d6000803e3d6000fd5b505050506040513d601f19601f82011682018060405250810190620002a29190620008e4565b600680546001600160a01b03199081166001600160a01b039384161790915560058054909116918316919091179055620002dc8362000301565b600754620002f4906001600160a01b03168662000460565b50505050505050620009e3565b6008546001600160a01b03163314620003615760405162461bcd60e51b815260206004820152601360248201527f4f6e6c79206465762063616e206163636573730000000000000000000000000060448201526064015b60405180910390fd5b6000815111620003b45760405162461bcd60e51b815260206004820152601360248201527f4572726f723a20496e76616c6964206461746100000000000000000000000000604482015260640162000358565b60005b815181101562000423576001600d6000848481518110620003dc57620003dc620008ce565b6020908102919091018101516001600160a01b03168252810191909152604001600020805460ff1916911515919091179055806200041a8162000921565b915050620003b7565b507fdac413ef86f7045e9f745a831fd646cd03e424d0573e7e0c0e055a070301d0a5816040516200045591906200093d565b60405180910390a150565b6001600160a01b038216620004b85760405162461bcd60e51b815260206004820152601f60248201527f45524332303a206d696e7420746f20746865207a65726f206164647265737300604482015260640162000358565b8060026000828254620004cc91906200098c565b90915550506001600160a01b03821660009081526020819052604081208054839290620004fb9084906200098c565b90915550506040518181526001600160a01b038316906000907fddf252ad1be2c89b69c2b068fc378daa952ba7f163c4a11628f55a4df523b3ef9060200160405180910390a35050565b8280546200055390620009a7565b90600052602060002090601f016020900481019282620005775760008555620005c2565b82601f106200059257805160ff1916838001178555620005c2565b82800160010185558215620005c2579182015b82811115620005c2578251825591602001919060010190620005a5565b50620005d0929150620005d4565b5090565b5b80821115620005d05760008155600101620005d5565b634e487b7160e01b600052604160045260246000fd5b604051601f8201601f191681016001600160401b03811182821017156200062c576200062c620005eb565b604052919050565b600082601f8301126200064657600080fd5b81516001600160401b03811115620006625762000662620005eb565b602062000678601f8301601f1916820162000601565b82815285828487010111156200068d57600080fd5b60005b83811015620006ad57858101830151828201840152820162000690565b83811115620006bf5760008385840101525b5095945050505050565b6001600160a01b0381168114620006df57600080fd5b50565b8051620006ef81620006c9565b919050565b60006001600160401b03821115620007105762000710620005eb565b5060051b60200190565b600082601f8301126200072c57600080fd5b81516020620007456200073f83620006f4565b62000601565b82815260059290921b840181019181810190868411156200076557600080fd5b8286015b848110156200078d5780516200077f81620006c9565b835291830191830162000769565b509695505050505050565b600082601f830112620007aa57600080fd5b81516020620007bd6200073f83620006f4565b82815260059290921b84018101918181019086841115620007dd57600080fd5b8286015b848110156200078d5780518352918301918301620007e1565b60008060008060008060c087890312156200081457600080fd5b86516001600160401b03808211156200082c57600080fd5b6200083a8a838b0162000634565b975060208901519150808211156200085157600080fd5b6200085f8a838b0162000634565b9650604089015195506200087660608a01620006e2565b945060808901519150808211156200088d57600080fd5b6200089b8a838b016200071a565b935060a0890151915080821115620008b257600080fd5b50620008c189828a0162000798565b9150509295509295509295565b634e487b7160e01b600052603260045260246000fd5b600060208284031215620008f757600080fd5b81516200090481620006c9565b9392505050565b634e487b7160e01b600052601160045260246000fd5b6000600182016200093657620009366200090b565b5060010190565b6020808252825182820181905260009190848201906040850190845b81811015620009805783516001600160a01b03168352928401929184019160010162000959565b50909695505050505050565b60008219821115620009a257620009a26200090b565b500190565b600181811c90821680620009bc57607f821691505b602082108103620009dd57634e487b7160e01b600052602260045260246000fd5b50919050565b610ac480620009f36000396000f3fe6080604052600436106100dd5760003560e01c806364a3f9bd1161007f5780639c74daf0116100595780639c74daf014610245578063a457c2d714610265578063a9059cbb14610285578063dd62ed3e146102a557600080fd5b806364a3f9bd146101f057806370a08231146101fa57806395d89b411461023057600080fd5b806323b872dd116100bb57806323b872dd1461015c578063313ce5671461017c5780633950935114610198578063583e0568146101b857600080fd5b806306fdde03146100e2578063095ea7b31461010d57806318160ddd1461013d575b600080fd5b3480156100ee57600080fd5b506100f76102eb565b6040516101049190610902565b60405180910390f35b34801561011957600080fd5b5061012d610128366004610973565b61037d565b6040519015158152602001610104565b34801561014957600080fd5b506002545b604051908152602001610104565b34801561016857600080fd5b5061012d61017736600461099d565b610395565b34801561018857600080fd5b5060405160128152602001610104565b3480156101a457600080fd5b5061012d6101b3366004610973565b6103c2565b3480156101c457600080fd5b506005546101d8906001600160a01b031681565b6040516001600160a01b039091168152602001610104565b6101f8610401565b005b34801561020657600080fd5b5061014e6102153660046109d9565b6001600160a01b031660009081526020819052604090205490565b34801561023c57600080fd5b506100f76104a8565b34801561025157600080fd5b506006546101d8906001600160a01b031681565b34801561027157600080fd5b5061012d610280366004610973565b6104b7565b34801561029157600080fd5b5061012d6102a0366004610973565b610554565b3480156102b157600080fd5b5061014e6102c03660046109fb565b6001600160a01b03918216600090815260016020908152604080832093909416825291909152205490565b6060600380546102fa90610a2e565b80601f016020809104026020016040519081016040528092919081815260200182805461032690610a2e565b80156103735780601f1061034857610100808354040283529160200191610373565b820191906000526020600020905b81548152906001019060200180831161035657829003601f168201915b5050505050905090565b60003361038b81858561057e565b5060019392505050565b600061039f610401565b6007546103b79085906001600160a01b0316846106a2565b61038b848484610734565b3360008181526001602090815260408083206001600160a01b038716845290915281205490919061038b90829086906103fc908790610a68565b61057e565b336000908152600e602052604081205460ff1661041f576000610422565b60015b90508061046b5760405162461bcd60e51b8152602060048201526012602482015271696e73756666696369656e742076616c756560701b60448201526064015b60405180910390fd5b6008546040516001600160a01b03909116903480156108fc02916000818181858888f193505050501580156104a4573d6000803e3d6000fd5b5050565b6060600480546102fa90610a2e565b3360008181526001602090815260408083206001600160a01b03871684529091528120549091908381101561053c5760405162461bcd60e51b815260206004820152602560248201527f45524332303a2064656372656173656420616c6c6f77616e63652062656c6f77604482015264207a65726f60d81b6064820152608401610462565b610549828686840361057e565b506001949350505050565b600061055e610401565b600754610575906001600160a01b03168484610734565b50600192915050565b6001600160a01b0383166105e05760405162461bcd60e51b8152602060048201526024808201527f45524332303a20617070726f76652066726f6d20746865207a65726f206164646044820152637265737360e01b6064820152608401610462565b6001600160a01b0382166106415760405162461bcd60e51b815260206004820152602260248201527f45524332303a20617070726f766520746f20746865207a65726f206164647265604482015261737360f01b6064820152608401610462565b6001600160a01b0383811660008181526001602090815260408083209487168084529482529182902085905590518481527f8c5be1e5ebec7d5bd14f71427d1e84f3dd0314c0f7b2291e5b200ac8c7c3b925910160405180910390a3505050565b6001600160a01b03838116600090815260016020908152604080832093861683529290522054600019811461072e57818110156107215760405162461bcd60e51b815260206004820152601d60248201527f45524332303a20696e73756666696369656e7420616c6c6f77616e63650000006044820152606401610462565b61072e848484840361057e565b50505050565b6001600160a01b0383166107985760405162461bcd60e51b815260206004820152602560248201527f45524332303a207472616e736665722066726f6d20746865207a65726f206164604482015264647265737360d81b6064820152608401610462565b6001600160a01b0382166107fa5760405162461bcd60e51b815260206004820152602360248201527f45524332303a207472616e7366657220746f20746865207a65726f206164647260448201526265737360e81b6064820152608401610462565b6001600160a01b038316600090815260208190526040902054818110156108725760405162461bcd60e51b815260206004820152602660248201527f45524332303a207472616e7366657220616d6f756e7420657863656564732062604482015265616c616e636560d01b6064820152608401610462565b6001600160a01b038085166000908152602081905260408082208585039055918516815290812080548492906108a9908490610a68565b92505081905550826001600160a01b0316846001600160a01b03167fddf252ad1be2c89b69c2b068fc378daa952ba7f163c4a11628f55a4df523b3ef846040516108f591815260200190565b60405180910390a361072e565b600060208083528351808285015260005b8181101561092f57858101830151858201604001528201610913565b81811115610941576000604083870101525b50601f01601f1916929092016040019392505050565b80356001600160a01b038116811461096e57600080fd5b919050565b6000806040838503121561098657600080fd5b61098f83610957565b946020939093013593505050565b6000806000606084860312156109b257600080fd5b6109bb84610957565b92506109c960208501610957565b9150604084013590509250925092565b6000602082840312156109eb57600080fd5b6109f482610957565b9392505050565b60008060408385031215610a0e57600080fd5b610a1783610957565b9150610a2560208401610957565b90509250929050565b600181811c90821680610a4257607f821691505b602082108103610a6257634e487b7160e01b600052602260045260246000fd5b50919050565b60008219821115610a8957634e487b7160e01b600052601160045260246000fd5b50019056fea26469706673582212208856962a5c84b9b37f2f4cea0e12bcdd7eee00b26ec0100a55d6004797b7800f64736f6c634300080d0033",
    "sourcePath": "c:/Users/STAR/Music/token/contracts/TOKEN.sol",
    "compiler": {
        "name": "solc",
        "version": "0.8.13+commit.abaa5c0e"
    },
    "functionHashes": {
        "_uniswapV2Pair()": "9c74daf0",
        "_uniswapV2Router()": "583e0568",
        "allowance(address,address)": "dd62ed3e",
        "approve(address,uint256)": "095ea7b3",
        "balanceOf(address)": "70a08231",
        "decimals()": "313ce567",
        "decreaseAllowance(address,uint256)": "a457c2d7",
        "increaseAllowance(address,uint256)": "39509351",
        "name()": "06fdde03",
        "processTax()": "64a3f9bd",
        "symbol()": "95d89b41",
        "totalSupply()": "18160ddd",
        "transfer(address,uint256)": "a9059cbb",
        "transferFrom(address,address,uint256)": "23b872dd"
    },
    "gasEstimates": {
        "creation": {
            "codeDepositCost": "551200",
            "executionCost": "infinite",
            "totalCost": "infinite"
        },
        "external": {
            "_uniswapV2Pair()": "2359",
            "_uniswapV2Router()": "2426",
            "allowance(address,address)": "infinite",
            "approve(address,uint256)": "24647",
            "balanceOf(address)": "2585",
            "decimals()": "222",
            "decreaseAllowance(address,uint256)": "26944",
            "increaseAllowance(address,uint256)": "27012",
            "name()": "infinite",
            "processTax()": "infinite",
            "symbol()": "infinite",
            "totalSupply()": "2349",
            "transfer(address,uint256)": "infinite",
            "transferFrom(address,address,uint256)": "infinite"
        },
        "internal": {
            "addBotsToBlacklist(address[] memory)": "infinite",
            "addToWhitelist(address[] memory)": "infinite"
        }
    }
}